:0C0000000C9434000C9400000C940000E0
:10000C000C9400000C9400000C9400000C94000064
:10001C000C9400000C9400000C9400000C94000054
:10002C000C9400000C9400000C9400000C94000044
:10003C000C9400000C9400000C9400000C94000034
:10004C000C9400000C9400000C9400000C94000024
:10005C000C9400000C9400000C940000F894EE2713
:10006C00EFBBF1E0F5BFE5BF8DE0A2E0BB27ED9360
:10007C008A95E9F780E098E0A0E0B1E0ED93019774
:10008C00E9F7E0E0EEBBEFEFEDBFE8E0EEBFC0E07C
:10009C00D3E00C945100E0E0E0938000EAE0E093C0
:1000AC008100EAE7E0938900E1E1E0938800B19BED
:1000BC00FECFB19AE0910003EF5FE0930003A091B3
:1000CC000003A43069F5E0E0E0930003A5E0B3E0A1
:1000DC0029D0A0910503B0910603DC9709F5E0E067
:1000EC00E0930503E0930603A3E0B3E01BD0A091DB
:1000FC000303B0910403DC9799F4E0E0E09303036D
:10010C00E0930403A1E0B3E00DD0A0910103B09102
:10011C000203589729F4E0E0E0930103E093020313
:10012C00C6CFFFCFED91FD913196FE93EE930895DE
:00000001FF
